{
  "contractName": "Meter",
  "abi": [
    {
      "constant": true,
      "inputs": [],
      "name": "getBalance",
      "outputs": [
        {
          "name": "",
          "type": "uint256"
        }
      ],
      "payable": false,
      "stateMutability": "view",
      "type": "function"
    },
    {
      "constant": true,
      "inputs": [],
      "name": "getLast4Transaction",
      "outputs": [
        {
          "name": "amount",
          "type": "uint256"
        },
        {
          "name": "name",
          "type": "string"
        },
        {
          "name": "when",
          "type": "uint256"
        }
      ],
      "payable": false,
      "stateMutability": "view",
      "type": "function"
    },
    {
      "constant": true,
      "inputs": [],
      "name": "getLast1Transaction",
      "outputs": [
        {
          "name": "amount",
          "type": "uint256"
        },
        {
          "name": "name",
          "type": "string"
        },
        {
          "name": "when",
          "type": "uint256"
        }
      ],
      "payable": false,
      "stateMutability": "view",
      "type": "function"
    },
    {
      "constant": true,
      "inputs": [],
      "name": "getLast2Transaction",
      "outputs": [
        {
          "name": "amount",
          "type": "uint256"
        },
        {
          "name": "name",
          "type": "string"
        },
        {
          "name": "when",
          "type": "uint256"
        }
      ],
      "payable": false,
      "stateMutability": "view",
      "type": "function"
    },
    {
      "constant": true,
      "inputs": [],
      "name": "getLast3Transaction",
      "outputs": [
        {
          "name": "amount",
          "type": "uint256"
        },
        {
          "name": "name",
          "type": "string"
        },
        {
          "name": "when",
          "type": "uint256"
        }
      ],
      "payable": false,
      "stateMutability": "view",
      "type": "function"
    },
    {
      "constant": false,
      "inputs": [
        {
          "name": "amt",
          "type": "uint256"
        },
        {
          "name": "name",
          "type": "string"
        }
      ],
      "name": "recharge",
      "outputs": [],
      "payable": false,
      "stateMutability": "nonpayable",
      "type": "function"
    },
    {
      "constant": true,
      "inputs": [],
      "name": "getLastTransaction",
      "outputs": [
        {
          "name": "amount",
          "type": "uint256"
        },
        {
          "name": "name",
          "type": "string"
        },
        {
          "name": "when",
          "type": "uint256"
        }
      ],
      "payable": false,
      "stateMutability": "view",
      "type": "function"
    },
    {
      "inputs": [],
      "payable": false,
      "stateMutability": "nonpayable",
      "type": "constructor"
    },
    {
      "anonymous": false,
      "inputs": [
        {
          "indexed": true,
          "name": "balance",
          "type": "uint256"
        }
      ],
      "name": "EventRechargeDone",
      "type": "event"
    }
  ],
  "bytecode": "0x606060405234156200001057600080fd5b6000808190555060006001819055506200007560016040805190810160405280600781526020017f4d75737461666100000000000000000000000000000000000000000000000000815250620001d36401000000000262000830176401000000009004565b620000cb60016040805190810160405280600681526020017f48757361696e0000000000000000000000000000000000000000000000000000815250620001d36401000000000262000830176401000000009004565b6200012160016040805190810160405280600681526020017f416b687461720000000000000000000000000000000000000000000000000000815250620001d36401000000000262000830176401000000009004565b6200017760016040805190810160405280600481526020017f4172696600000000000000000000000000000000000000000000000000000000815250620001d36401000000000262000830176401000000009004565b620001cd60016040805190810160405280600581526020017f46617a616c000000000000000000000000000000000000000000000000000000815250620001d36401000000000262000830176401000000009004565b62000396565b81600080828254019250508190555081600260006001548152602001908152602001600020600001819055508060026000600154815260200190815260200160002060010190805190602001906200022d929190620002e7565b503360026000600154815260200190815260200160002060020160006101000a81548173ffffffffffffffffffffffffffffffffffffffff021916908373ffffffffffffffffffffffffffffffffffffffff16021790555042600260006001548152602001908152602001600020600301819055506001600081548092919060010191905055506000547f505087f5c90dd1e66c43ece502a9e408fc40efee451b05b57babb377c6cc6dc860405160405180910390a25050565b828054600181600116156101000203166002900490600052602060002090601f016020900481019282601f106200032a57805160ff19168380011785556200035b565b828001600101855582156200035b579182015b828111156200035a5782518255916020019190600101906200033d565b5b5090506200036a91906200036e565b5090565b6200039391905b808211156200038f57600081600090555060010162000375565b5090565b90565b610b2780620003a66000396000f300606060405260043610610083576000357c0100000000000000000000000000000000000000000000000000000000900463ffffffff16806312065fe01461008857806325acce0e146100b15780634d33c0ad1461014d57806393fe9231146101e95780639ed0918f14610285578063e8f4d59014610321578063f7e03fd814610387575b600080fd5b341561009357600080fd5b61009b610423565b6040518082815260200191505060405180910390f35b34156100bc57600080fd5b6100c461042c565b6040518084815260200180602001838152602001828103825284818151815260200191508051906020019080838360005b838110156101105780820151818401526020810190506100f5565b50505050905090810190601f16801561013d5780820380516001836020036101000a031916815260200191505b5094505050505060405180910390f35b341561015857600080fd5b61016061052d565b6040518084815260200180602001838152602001828103825284818151815260200191508051906020019080838360005b838110156101ac578082015181840152602081019050610191565b50505050905090810190601f1680156101d95780820380516001836020036101000a031916815260200191505b5094505050505060405180910390f35b34156101f457600080fd5b6101fc61062e565b6040518084815260200180602001838152602001828103825284818151815260200191508051906020019080838360005b8381101561024857808201518184015260208101905061022d565b50505050905090810190601f1680156102755780820380516001836020036101000a031916815260200191505b5094505050505060405180910390f35b341561029057600080fd5b61029861072f565b6040518084815260200180602001838152602001828103825284818151815260200191508051906020019080838360005b838110156102e45780820151818401526020810190506102c9565b50505050905090810190601f1680156103115780820380516001836020036101000a031916815260200191505b5094505050505060405180910390f35b341561032c57600080fd5b610385600480803590602001909190803590602001908201803590602001908080601f01602080910402602001604051908101604052809392919081815260200183838082843782019150505050505091905050610830565b005b341561039257600080fd5b61039a610942565b6040518084815260200180602001838152602001828103825284818151815260200191508051906020019080838360005b838110156103e65780820151818401526020810190506103cb565b50505050905090810190601f1680156104135780820380516001836020036101000a031916815260200191505b5094505050505060405180910390f35b60008054905090565b6000610436610a42565b60008060056001540390506002600082815260200190815260200160002060000154600260008381526020019081526020016000206001016002600084815260200190815260200160002060030154818054600181600116156101000203166002900480601f01602080910402602001604051908101604052809291908181526020018280546001816001161561010002031660029004801561051a5780601f106104ef5761010080835404028352916020019161051a565b820191906000526020600020905b8154815290600101906020018083116104fd57829003601f168201915b5050505050915093509350935050909192565b6000610537610a42565b60008060026001540390506002600082815260200190815260200160002060000154600260008381526020019081526020016000206001016002600084815260200190815260200160002060030154818054600181600116156101000203166002900480601f01602080910402602001604051908101604052809291908181526020018280546001816001161561010002031660029004801561061b5780601f106105f05761010080835404028352916020019161061b565b820191906000526020600020905b8154815290600101906020018083116105fe57829003601f168201915b5050505050915093509350935050909192565b6000610638610a42565b60008060036001540390506002600082815260200190815260200160002060000154600260008381526020019081526020016000206001016002600084815260200190815260200160002060030154818054600181600116156101000203166002900480601f01602080910402602001604051908101604052809291908181526020018280546001816001161561010002031660029004801561071c5780601f106106f15761010080835404028352916020019161071c565b820191906000526020600020905b8154815290600101906020018083116106ff57829003601f168201915b5050505050915093509350935050909192565b6000610739610a42565b60008060046001540390506002600082815260200190815260200160002060000154600260008381526020019081526020016000206001016002600084815260200190815260200160002060030154818054600181600116156101000203166002900480601f01602080910402602001604051908101604052809291908181526020018280546001816001161561010002031660029004801561081d5780601f106107f25761010080835404028352916020019161081d565b820191906000526020600020905b81548152906001019060200180831161080057829003601f168201915b5050505050915093509350935050909192565b8160008082825401925050819055508160026000600154815260200190815260200160002060000181905550806002600060015481526020019081526020016000206001019080519060200190610888929190610a56565b503360026000600154815260200190815260200160002060020160006101000a81548173ffffffffffffffffffffffffffffffffffffffff021916908373ffffffffffffffffffffffffffffffffffffffff16021790555042600260006001548152602001908152602001600020600301819055506001600081548092919060010191905055506000547f505087f5c90dd1e66c43ece502a9e408fc40efee451b05b57babb377c6cc6dc860405160405180910390a25050565b600061094c610a42565b600080600180540390506002600082815260200190815260200160002060000154600260008381526020019081526020016000206001016002600084815260200190815260200160002060030154818054600181600116156101000203166002900480601f016020809104026020016040519081016040528092919081815260200182805460018160011615610100020316600290048015610a2f5780601f10610a0457610100808354040283529160200191610a2f565b820191906000526020600020905b815481529060010190602001808311610a1257829003601f168201915b5050505050915093509350935050909192565b602060405190810160405280600081525090565b828054600181600116156101000203166002900490600052602060002090601f016020900481019282601f10610a9757805160ff1916838001178555610ac5565b82800160010185558215610ac5579182015b82811115610ac4578251825591602001919060010190610aa9565b5b509050610ad29190610ad6565b5090565b610af891905b80821115610af4576000816000905550600101610adc565b5090565b905600a165627a7a72305820a2ed8647556d6ec0706a3ea06d5dfa60bcc21a420da66566d65131508ffa60e00029",
  "source": "pragma solidity ^0.4.4;\n\n\ncontract Meter {\n\n  uint private balance;\n  uint private counter;\n\n    struct Transactions { // Struct\n        uint amount;\n        string by_name;\n        address by_address;\n        uint when;\n    }\n\n    mapping(uint => Transactions) transactionList; \n\n  // Whenever a high bid is received\n  event EventRechargeDone(uint indexed balance);\n\n  function Meter() public {\n    // constructor\n    balance = 0;\n    counter = 0;\n\n    recharge(1, \"Mustafa\");\n    recharge(1, \"Husain\");\n    recharge(1, \"Akhtar\");\n    recharge(1, \"Arif\");\n    recharge(1, \"Fazal\");\n  }\n\n  // returns the result\n  function getBalance() public constant returns (uint) {\n    return balance;\n  }\n\n  // returns the result\n  function getLastTransaction() public constant returns (uint amount, string name, uint when) {\n    uint index = counter-1;\n    return (transactionList[index].amount, transactionList[index].by_name, transactionList[index].when) ;\n  }\n\n  // returns the result\n  function getLast1Transaction() public constant returns (uint amount, string name, uint when) {\n    uint index = counter-2;\n    return (transactionList[index].amount, transactionList[index].by_name, transactionList[index].when) ;\n  }\n\n  // returns the result\n  function getLast2Transaction() public constant returns (uint amount, string name, uint when) {\n    uint index = counter-3;\n    return (transactionList[index].amount,transactionList[index].by_name, transactionList[index].when) ;\n  }\n\n  // returns the result\n  function getLast3Transaction() public constant returns (uint amount, string name, uint when) {\n    uint index = counter-4;\n    return (transactionList[index].amount, transactionList[index].by_name, transactionList[index].when) ;\n  }\n\n  // returns the result\n  function getLast4Transaction() public constant returns (uint amount, string name, uint when) {\n    uint index = counter-5;\n    return (transactionList[index].amount, transactionList[index].by_name, transactionList[index].when) ;\n  }\n\n  function recharge(uint amt, string name) public {\n    balance += amt;\n    transactionList[counter].amount = amt;\n    transactionList[counter].by_name = name;\n    transactionList[counter].by_address = msg.sender;\n    transactionList[counter].when = now;\n    counter++;\n\n    EventRechargeDone(balance);\n  }\n}",
  "sourcePath": "/Users/mustafahusain/Documents/Blockchain/Truffle/Truffle-Setup/contracts/Meter.sol",
  "compiler": {
    "name": "solc",
    "version": "0.4.18+commit.9cf6e910.Emscripten.clang"
  },
  "schemaVersion": "1.0.1",
  "updatedAt": "2018-02-09T08:50:59.283Z"
}